S0120000415652506872617365732E7372656353
S113000079C6000093C6000091C600008FC60000A8
S11300108DC600008BC6000089C6000087C600009C
S113002085C6000083C6000081C600007FC60000AC
S11300307DC600007BC6000079C6000077C60000BC
S113004097C6000073C60000E8C600006FC6000033
S113005012C700006BC6000069C6000067C6000036
S113006065C6000063C6000038846B19C663188631
S11300707398C6B11CCA318CC73188C230984631D6
S113008018C6350CCA310CC62110246912C23114A9
S1130090C471084A2249AB6AA8AC495132D5528886
S11300A0936C94221554D22596D450A546210885E4
S11300B06B18C46310CE6B188C71198C63350CC625
S11300C03399CC6CB54EA29946212882952EE33003
S11300D09CC5309CA2B19C67318866592C53188406
S11300E06750CAE30AACAB30AC62308C63109462E4
S11300F0B18C8228963398D6B54C6229A54AB59C12
S1130100C63114D6389C4BB4866518AE671CA663FA
S113011019962319841308A652ACCA22896EAB1906
S11301208C6234C46219866318C42358D6A350421F
S1130130544AAD4A25116B64894A63398A23312AAA
S1130140EAA2A944C512CD42348C62188C631148CA
S113015066319D44331D46319CC6B10CCD3288C4F2
S11301607318867308D663580781E0F03C078790BC
S11301703C7C0FC7C0C0F07C1E078080001C7870D8
S1130180F1C71FC00CFE1C1F1F0E0A7AC071F28338
S11301908F030F0F0C0079F861E0430F83E718F920
S11301A0C113DAE9638F0F838387C31F3C70F0E1C7
S11301B0E1E387B8710E20E38D48781C938730E122
S11301C0C1C1E478218383C3870639E5C387070E59
S11301D01C1C70F4719C603632C31E3CF38F0E3CC1
S11301E070E3C78F0F0F0E3C78F0E38706F0E30748
S11301F0C199870F18787070FCF310B18C8C317C26
S113020070E1863C646CB0E1E30F238F0F1E3E382F
S11302103C387B8F070E3CF4171E3C78F29E7249E3
S1130220E32536385839E2DE3C7878E1C761E1E10C
S1130230B0F0F0C3C70E38C0F0CE73731834B0E119
S1130240C78E1C3CF838F0E1C18B868F1C7870F0A7
S113025078ACB18F3931DB3861C30E0E387873173F
S11302601E391E3864E1F1C14E0F40A202C58F81D0
S1130270A1FC120864E03C22E045078E0C3290F0A9
S11302801F2049E0F80C60F0171A41AAA4D08D127F
S1130290821E1E03F83E030C73807044260324E17F
S11302A03E044E041CC109CC9E902107904364C0B7
S11302B00FC6909CC15B03E21D81E05E1D0384B800
S11302C02C0F80B183E030411E43898350FC242EDF
S11302D01383F17C4C2CC90D83B0B582E4E8069CF1
S11302E007A0991D073E828F70307440CA10E4E85D
S11302F00F92143F06F8848843810A343941C6E3D7
S11303001C4703B0B8130AC264F818F960B3C06597
S11303102060A68CC3812030261E1C38D301B02651
S113032040F40BC3421F8532266040C9CB01EC1157
S11303302840FA0434E0704C8C1D07690316C80485
S113034023E8C69A0B1A03E0760605CF1EBC583183
S1130350716600F83F04FC0C74278A8071C23A2647
S113036006C01F050F9840AE017FC007FF000EFEB8
S11303700003DF8003EF801BF1C200E7E018FCE01C
S113038021FC803CFC400E7E003F3E000FFE001F1F
S1130390FF003EF007FC007E103FFF003F380E7C5C
S11303A001870CFCC7003E040F3E1F0F0F1F0F02F6
S11303B08387CF03870F3FC0079E603FC003FE00C3
S11303C03FE077E1C0FEE0C3E001DFF80307007E11
S11303D070007C3818FE0C1E781C7C3E0E1F1E1EFE
S11303E03E007F8307DB878307C7071071FF003F49
S11303F0E201E0C1C3E1007FC005F020F8F070FE27
S11304007879F8023F0C8F030F9FE0C1C78703C3BD
S1130410C3B0E1E1C1E3E071F000FC707C0C3E3854
S11304200E1C70C3C70381C1C7E7000FC787190932
S1130430EFC433E0C1FCF870F078F8F061C7001F36
S1130440F8017CF8F078703C7CCE0E2183CF08074D
S11304508F08C1878F80C7E30007F8E0EF0039F702
S1130460800EF8E1E3F8219FC0FF03F807C01FF8EE
S1130470C404FCC4C1BC87F00FC07F05E025ECC0F8
S11304803E8447F08E03F803FBC019F8079C0C1751
S1130490F807E01FA1FC0FFC01F03F00FE03F01F72
S11304A000FD00FF880DF901FF007007C03E42F314
S11304B00DC47F80FC07F05EC03F00783F81FF01E0
S11304C0F801C3E80CE4648FE40FF007F0C21F00E6
S11304D07FC06F807E03F807F03FC0780F8207FE6D
S11304E0227770027603FE00FE67007CC7F18EC699
S11304F03BE03F84F319D80399FC09B80FF8009D39
S11305002461F90D00FD03F01F903F01F81FD00F87
S1130510F83701F807F00FC03F00FE03F80FC03FA3
S113052000FA03F00F80FF01B807F001FC01BC8062
S1130530131E007FE1407FA07FB0003FC01FC03882
S11305400FF01F80FF01FC03F17E01FE01F0FF00AC
S11305507FC01D07F00FC07E06E007E00FF806C15C
S1130560FE01FC03E00F00FC00000000000000009E
S1130570000000000000000000000101020203036B
S1130580040405050606070700010203040506071F
S113059008090A0B0C0D0E0F000103040607090AD3
S11305A00C0D0F101213151600020406080A0C0E87
S11305B010121416181A1C1E000205070A0C0F113B
S11305C01416191B1E202325000306090C0F1215EF
S11305D0181B1E2124272A2D0003070A0E111518A3
S11305E01C1F23262A2D313400FCF8F4F0ECE8E437
S11305F0E0DCD8D4D0CCC8C400FCF9F5F2EEEBE7CB
S1130600E4E0DDD9D6D2CFCB00FDFAF7F4F1EEEB7E
S1130610E8E5E2DFDCD9D6D300FDFBF8F6F3F1EE32
S1130620ECE9E7E4E2DFDDDA00FEFCFAF8F6F4F2E6
S1130630F0EEECEAE8E6E4E200FEFDFBFAF8F7F59A
S1130640F4F2F1EFEEECEBE900FFFEFDFCFBFAF94E
S1130650F8F7F6F5F4F3F2F100FFFFFEFEFDFDFC02
S1130660FCFBFBFAFAF9F9F8909090909090909036
S11306709090909090909090909090909090909076
S11306809090909090909090909090909090909066
S11306909090909090909090909090909090909056
S11306A09090909090909090909090909090909046
S11306B09090909090909090909090909090909036
S11306C09090909090909090909090909090909026
S11306D09090909090909090909090909090909016
S11306E09090909090909090707070707070707006
S11306F070707070707070707070707070707070F6
S113070070707070707070707070707070707070E5
S113071070707070707070707070707070707070D5
S113072070707070707070707070707070707070C5
S113073070707070707070707070707070707070B5
S113074070707070707070707070707070707070A5
S11307507070707070707070707070707070707095
S113076070707070707070700000001010101010B5
S113077010202020202020303030303030304040D5
S11307804040404040505050505050505060606085
S113079060606060606060606070707070707070E5
S11307A07070707070707070707070707070707045
S11307B070707070707070706060606060606060B5
S11307C06060606050505050505050504040404025
S11307D04040403030303030303020202020202045
S11307E01010101010100000000000F0F0F0F0F0F5
S11307F0F0E0E0E0E0E0E0D0D0D0D0D0D0D0C0C095
S1130800C0C0C0C0C0B0B0B0B0B0B0B0B0A0A0A0C4
S1130810A0A0A0A0A0A0A0A0A09090909090909044
S113082090909090909090909090909090909090C4
S11308309090909090909090A0A0A0A0A0A0A0A034
S1130840A0A0A0A0B0B0B0B0B0B0B0B0C0C0C0C0A4
S1130850C0C0C0D0D0D0D0D0D0D0E0E0E0E0E0E064
S1130860F0F0F0F0F0F000000000000000080708CD
S11308700801010001000705010006010007000549
S11308800100080000030000000000000000000157
S11308900000000000010E01090100010000000039
S11308A00000000000000000000000000000000044
S11308B0000700000500131000000000000A0B0DE3
S11308C00E0D0C0C0B090B0B0C0C0C08080C080A75
S11308D008080A03090600000000000000000305E0
S11308E00304000000050A020E0D0C0D0C080001A3
S11308F000000100000100000100000000000000F1
S1130900000A00000A00000000000000000D0D0EA7
S11309100F0F0F0F0F0C0D0C0F0F0D0D0D0E0D0CF7
S11309200D0D0D0C090900000000000000000B0B68
S11309300B0B0000010B00020E0F0F0F0F0D020432
S11309400002040001040001040000000000000093
S1130950000C000000000F0F005B5B5B5B6E5D5BD7
S11309605859575852595D3E52583E6E505D5A3C44
S11309706E5A6E517965795B636A51795D525D6730
S11309804C5D6565796579005A58585858525151EB
S113099051797979706E6E5E5E5E515151797979D3
S11309A06565705E5E5E08010000000000000000E6
S11309B00000000000000000000000000000000033
S11309C00000000000000000F1E2D3BB7C950102AE
S11309D00303007200020000000000000000000099
S11309E000000000000000000000001B00001900CF
S11309F000000000000000000002020202040404DF
S1130A0004040404040404040404030304040303A6
S1130A1003030301020302010303030301010303AC
S1130A200302020302030000050505050404020095
S1130A300202000302000402000302000202000298
S1130A40030003030003B0A0000202020204040432
S1130A500404040404040404040403020404020259
S1130A60020202010101010101010101010102026D
S1130A70020100010001000505050505040402004A
S1130A800102000102000102000102000202000151
S1130A90030002030002A0A0001F1F1F1F02020286
S1130AA00202020202020505020A020805050B0AF7
S1130AB0090808A00808171F121212121E1E141487
S1130AC0141417171A1A1D1D0202020202021A1D1B
S1130AD01B1A1D1B1A1D1B1A1D1B171D17171D176B
S1130AE0171D17171D17171700010202020303042D
S1130AF004050608090B0D0F000000E0E6ECF3F90D
S1130B0000060C06181A1717170012121208080804
S1130B1008080B060C0A05050B0A0A0A0908070946
S1130B200706080607070702050202020202020678
S1130B3006070606020803011E0D0C0C0C0E09061E
S1130B400102050101060102060102080202040273
S1130B5002060104060104C7FF00121212080B0961
S1130B600B0E0F0B100C06060E0C0E0C0B08080BCC
S1130B700A0908080808080305020202020202061C
S1130B800608060602090402010E0F0F0F0E0E08D6
S1130B900202070201070202070202080202060219
S1130BA002070204070104050580C1C1C1C1000098
S1130BB00000000000000000000000000000000031
S1130BC010101010080C08044024202024000024D5
S1130BD0202024202000200000000000000000004D
S1130BE000000404040000000000000000000404ED
S1130BF0040000000000000000000000A4A4A4A45D
S1130C00A4A48484A4A484848484848484444444E0
S1130C1044444C4C4C484C40404040404044444484
S1130C204448404C440000B4B4B49494944E4E4EA2
S1130C304E4E4E4E4E4E4E4E4E4B4B4B4B4B4B4BE5
S1130C404B4B4B4B4B80C1C12A2A2A2A2A5948486C
S1130C504541484F48585852584858585858482AB7
S1130C602A2A2A2A2A58582A2A482A4848582A48DE
S1130C702A48482A2A2A2A2A5959595757572A2A80
S1130C802A2A2A2A2A2A2A582A2A2A2A2A2A2A2A92
S1130C902A2A2A582A2A4C4D4E202E3F2C2D4949C7
S1130CA0454141414155414945554F524C5759578A
S1130CB0524C57594D4E4E4451535346542F2F5A6C
S1130CC05A5644432A4A2A2A2A45414F414F5542FB
S1130CD02A2A442A2A472A2A472A2A502A2A542ACC
S1130CE02A4B2A2A4B2A2A5555552A313233343570
S1130CF03637380011241FBECFEFD8E0DEBFCDBF9A
S1130D0012E0A0E0B1E0E4E9F9E202C005900D923E
S1130D10AE33B107D9F728E0AEE3B2E001C01D92CB
S1130D20A839B207E1F7F7D00C94C81469C99093B5
S1130D3045028093440282E084B981E88093800074
S1130D4089E080938100109289001092880084B514
S1130D50816084BD16BCEEE6F0E080818160808312
S1130D6084E090E09093470280934602789408953B
S1130D701F920F920FB60F9211242F933F934F930C
S1130D805F936F937F938F939F93AF93BF93EF93EF
S1130D90FF938091460290914702019729F0909326
S1130DA047028093460228C084E090E09093470273
S1130DB08093460268E472E0809144029091450277
S1130DC0DED0882321F08091480290E002C080E0C8
S1130DD090E0909389008093880080914B029091D9
S1130DE04C022091490230914A022817390720F415
S1130DF010924C0210924B02FF91EF91BF91AF9170
S1130E009F918F917F916F915F914F913F912F911E
S1130E100F900FBE0F901F9018951F920F920FB650
S1130E200F9211242F933F934F935F936F937F936C
S1130E308F939F93AF93BF93CF93EF93FF93C091FF
S1130E40C6006C2F80914F0290915002BCD0882331
S1130E50C1F3FF91EF91CF91BF91AF919F918F918A
S1130E607F916F915F914F913F912F910F900FBEA2
S1130E700F901F9018951F920F920FB60F92112486
S1130E802F933F934F935F936F937F938F939F938E
S1130E90AF93BF93EF93FF93CF93DF931F92CDB79D
S1130EA0DEB7BE016F5F7F4F80914D0290914E027D
S1130EB066D0882321F089818093C60007C01092F0
S1130EC03E02E1ECF0E080818F7B80830F90DF9124
S1130ED0CF91FF91EF91BF91AF919F918F917F91AE
S1130EE06F915F914F913F912F910F900FBE0F9093
S1130EF01F901895CF93C82F809151029091520260
S1130F003BD08111F9CF6C2F809151029091520204
S1130F105AD0CF91089580E490E011D0909352027A
S1130F208093510204DF8AE797E090935402809300
S1130F3053028AEA91E067D50E941C13FDCF0F93F8
S1130F401F93CF93DF93EC0161E070E00E947A136A
S1130F508C0189E090E00E949413FC0111830083CA
S1130F60D383C28315821482178216821086DF917E
S1130F70CF911F910F910895FC0180850895FC0184
S1130F8026813781848195818217930749F480856E
S1130F90811106C0089517821682108681E0089593
S1130FA080819181DC01A20FB31F8C91DB018C93B2
S1130FB08681978101969783868322813381821764
S1130FC0930759F7E8CFFC018085811121C0A081E6
S1130FD0B18184819581A80FB91F6C938481958117
S1130FE0019695838483228133818217930711F4B8
S1130FF015821482248135818681978128173907C7
S113100011F481E0808781E0611103C080E00895DC
S113101080E00895862FE0915302F09154020995DF
S11310200895883A31F4E62FF0E0EB5AFD4F8081C1
S11310300895893A31F4E62FF0E0EB58FC4F8081B3
S113104008958A3A31F4E62FF0E0EB51FD4F8081A8
S113105008958B3A31F4E62FF0E0EB55FC4F808194
S113106008958C3A31F4E62FF0E0EB57FD4F808180
S113107008958D3A31F4E62FF0E0EB5EFC4F808169
S113108008958E3A31F4E62FF0E0EB54FD4F808161
S1131090089580E00895883A31F4E62FF0E0EB5AA1
S11310A0FD4F408310C0893A31F4E62FF0E0EB584D
S11310B0FC4F408310C08A3A31F4E62FF0E0EB5144
S11310C0FD4F408310C08B3A31F4E62FF0E0EB552E
S11310D0FC4F408310C08C3A31F4E62FF0E0EB571C
S11310E0FD4F408308958D3A31F4E62FF0E0EB5E36
S11310F0FC4F408308958E3A29F4E62FF0E0EB5438
S1131100FD4F40830895EF92FF920F931F93CF9367
S1131110DF938C012091D8042093DA059091D503B4
S1131120892F877081508093930880935508E82F06
S1131130F0E0EC5FF44FE491E09318078093D90456
S1131140987FB1F4E22FF0E0EB5AFD4FF080F69473
S1131150F694F694F694F092D603F094F801808114
S11311608093D8046894EE24E3F8D6E0CAE143C03F
S113117090959093D804C8E0C0935508E091D904A1
S1131180F0E0FE2FEE278091D804E80FF11DE85916
S1131190FF4FE491E093D6038091D603982F990FE3
S11311A09093D60388235CF06091180760939308AA
S11311B081E090E02FDF80919308811104C065E005
S11311C082E090E027DF10929308809155088150C7
S11311D0809355088111E0CF8091D8048F5F80936C
S11311E0D8048111C9CF81E08093D7038091DA05B7
S11311F08093D8043FC0E0925508E091D904F0E010
S11312008091D804FE2FEE27E80FF11DE859FF4F17
S113121080818093D6039091D603292F220F2093A7
S1131220D60399233CF4C09393086C2F83E090E099
S1131230F1DE06C0D09393086D2F84E090E0EADEDF
S1131240909155089150909355089111E4CF809155
S1131250D8048F5F8093D804F394F110CCCF91E03D
S11312609093D6039093D703F80180838091DA0595
S11312708093D804DF91CF911F910F91FF90EF904D
S11312800895309193083093DA05432F50E04F319D
S113129051052CF092EE930F9093D60302C0109256
S11312A0D6039091D60390939308E92FF0E0EB5A7C
S11312B0FD4F20812093D6032F3781F49F5F01C017
S11312C0942FE92FF0E0EB5AFD4F208141E0490FC4
S11312D02F37B1F3909393082093D60390919308FA
S11312E04091D603480FE92FF0E0EB5AFD4F4083BD
S11312F09F5F391749F0E92FF0E0EB5AFD4F208149
S11313002F3FB1F3480FEFCF909393084093D60348
S11313100895AF92BF92CF92DF92EF92FF920F9314
S11313201F93CF93DF931F92CDB7DEB78091190837
S11313308F3F09F472C2109293081092D70310E001
S113134001E0E091D703E093D804F0E0E75EF74FC3
S113135080818093D603809355088F3F09F470C031
S1131360813029F40093D603612F802F8ADF809186
S1131370D603823019F4612F8FEF83DF8091D80474
S113138090E0FC01E552FA4FE081F0E0E750F54FC0
S11313901181FC01EA5AF74F80812091550830E011
S11313A0F901EA5AFE4FE08090919308F901EA5F4F
S11313B0FE4FF080F901E85AF64FB081F901E85F79
S11313C0F64FA081F901E854F74F7081F901E8590B
S11313D0F74F6081F901E855F64F50814091A8011B
S11313E0410F890F292F30E0F901EB58FC4FE082BF
S11313F0F901EB51FD4FF082F901EB55FC4FB0833D
S1131400F901EB57FD4FA083F901EB5EFC4F7083AC
S1131410F901EB54FD4F6083F901EB5BFC4F508302
S1131420F901EB5AFD4F40839F5F9813DBCF809304
S113143093088091D7038F5F8093D703811181CF65
S11314401092D7031092DA05E9E1F8E08081218156
S11314502F3F09F4CBC10F2EF8EADF2EF02D30E038
S1131460F901E856F54F40814093550890E0FC019E
S1131470E856F54F5081451309C0FC01E85BF54F70
S11314804081F901E85BF54F808113C0541748F49B
S1131490F901E850F64F4491F901E85BF54F849166
S11314A008C0FC01E85BF54F4491FC01E850F64F9D
S11314B08491E091D703E093D804F0E0EA5AF74F1F
S11314C0F0809091DA05F90EF092DA05D092D90401
S11314D0E82EE40EE092D6039EEF9E0D90939308BF
S11314E099230CF485C00F2D041BF80E8091D904A8
S11314F0883A01F5E091D703F0E0EA5AF74F2081EA
S113150026958181982F9695C92EC20E8091DA0571
S1131510B82EB21A692F680F8D2D83DD182F809392
S1131520D603B092D8046B2D8D2D7BDD181B109340
S113153018070FC06F2D75DD182F8093D603009305
S1131540D804602F8091D9046CDD181B1093180700
S1131550CE2C1092170720911807822F90E06C2D43
S113156070E00E94531380939208822F6C2D0E9486
S1131570471380931807C09293080093D8041092DD
S113158055081091D9046091D804812F4ADD409107
S11315901807480F4093D6036091D8046F5F609397
S11315A0D804909193089150909393089923D1F083
S11315B02091920890915508920F9C1518F49093DD
S11315C055080CC09C1990935508809117078823DF
S11315D024F0442319F04F5F01C041508091D90495
S11315E05ADDCFCF1F5F1093D9041F3A09F07ECF85
S11315F0E091D703EF5FE093D703F0E0E75EF74FA6
S1131600808121812F3F09F02ACFF0C09D919695CA
S11316108081891B8193E217F307C1F71092DA05E1
S113162024E833E084E194E0A4EBB3E04FEF50E02E
S1131630F9016081E62FF0E0E851F54F6081F9018E
S11316406083FC016081E62FF0E0E851F54F608192
S1131650FC016083EC91F0E0E851F54F60816C93FC
S11316604150510921503109019711974F3FFFEF24
S11316705F07F1F61092D804009155020093D70346
S113168000939308802F86958695081B0F2EF8E407
S1131690FF2EF02DC12CD12CE12CAA24A394B12C23
S11316A02091D80430E0F901EB5BFC4F80818093FA
S11316B0D503887F8093D603882351F0CE01019609
S11316C022DD8091D8048E5F8093D804125055C0D7
S11316D0EE2DF0E0E859F84FA091D804B0E0AB57F4
S11316E0BD4FE0818C91E82BF0E0E859FA4F50812E
S11316F0ED2DF0E0E859F84FD901AB5EBC4FE08125
S11317008C91E82BF0E0E859FA4F4081642F650F83
S113171060935508EC2DF0E0E859F94FD901AB542A
S1131720BD4FE0819C91E92BF0E0E859FA4F8081AC
S1131730680F242F30E0250F311D8A2D2F3F3105EE
S113174009F00CF48B2D860F8857682F70E075957F
S11317506795759567957595679575956795609384
S1131760D60380E090E056DCFA94F1100BC080912F
S1131770D8048F5F8093D8041150112309F44DC00D
S1131780F090A9018091D70381508093D7038111F0
S113179010C0E091D804F0E0EB5AFD4F00810093B3
S11317A0D703802F86958695081BCB2CDB2CEB2C3E
S11317B077CF015021F48091D503811113C080911A
S11317C0D80490E0FC01EB58FC4F2081E20EFC01B0
S11317D0EB51FD4F2081D20EFC01EB55FC4F808173
S11317E0C80E5ECFCE0101968EDCD3CFE091D70335
S11317F0F0E0EA5AF74F10818091DA05180F8091D2
S1131800420290914302892B09F008CFA5E7B3E087
S1131810E5E5F2E025E832E0F9CE0F90DF91CF91D3
S11318201F910F91FF90EF90DF90CF90BF90AF90FA
S11318300895CF93382F40E028E090E070E0A62F81
S1131840B0E0C0E8832F817036958823A9F0892FF2
S1131850860F582F5695FD01E90FF11DEF3FF10555
S113186009F01CF4482F872F02C0482F8C2F952F86
S1131870982B215039F704C0592F5695872FF7CF4D
S11318804093D60310929308892F90E0880F991FF4
S1131890CF9108958F929F92AF92BF92CF92DF9291
S11318A0EF92FF920F931F93CF93DF93CDB7DEB7E1
S11318B0C854D1090FB6F894DEBF0FBECDBF982E21
S11318C0862E8EE1E5EFF1E0DE01119601900D9296
S11318D08A95E1F78EE1E3E1F2E0DE015F960190A3
S11318E00D928A95E1F786E0E1E3F2E0DE01DD9610
S11318F001900D928A95E1F786E0E7E3F2E0DE01DC
S1131900AD5BBF4F01900D928A95E1F70F2EFBE07E
S1131910CF2EF1E0DF2EF02D0F2EFBE5EF2EF1E0C0
S1131920FF2EF02DA12CB12C80E085010B5F1F4F01
S1131930E1E0F0E0EC0FFD1FE00FF11F649166237E
S113194011F0892D76DFF70181937F01EFE1F0E05B
S1131950EC0FFD1FE00FF11F6491662311F0882D39
S113196068DFF60181936F01FFEFAF1ABF0A99E1B7
S1131970A916B104D1F61092D80406E811E00F2E8E
S1131980F6E3EF2EF1E0FF2EF02D0F2EFCE8CF2E24
S1131990F1E0DF2EF02D8091D804EDE3F0E0EC0FC0
S11319A0FD1FE80FF11D6491892D43DFF801819338
S11319B08F018091D804E3E4F0E0EC0FFD1FE80F01
S11319C0F11D6491882D35DFF70181937F018091AA
S11319D0D8048F5F8093D8040C151D05E1F6C85B0D
S11319E0DF4F0FB6F894DEBF0FBECDBFDF91CF91AE
S11319F01F910F91FF90EF90DF90CF90BF90AF9029
S1131A009F908F900895FC0101900020E9F7319791
S1131A10AF01481B590B4F3F510514F04EEF50E0F6
S1131A20141615065CF4FC01A8EDB3E09C01240F28
S1131A30351F91919D93E217F307D9F7FA01E85204
S1131A40FC4F10820895CF93DF936091A60180919B
S1131A50A70120DF80E490E072DA90934002809343
S1131A603F02EAEDF4E0A9E1B7E08AED95E01192D6
S1131A701D92E817F907D9F7E9E1F8E0CBEDD5E0D5
S1131A80A6E5B8E085E598E0119219921D92E81751
S1131A90F907D1F78FEF80931607DF91CF9108955F
S1131AA0CF93DF93109293081092D804DFEF9091B4
S1131AB09308292F30E0F901E95EF94F8081809382
S1131AC0D6038F3F41F4E091D804F0E0E75EF74F8E
S1131AD080831FDC39C08E3F81F4C1E0C90FC093FD
S1131AE09308E091D804F0E0E75EF74FD08311DC6F
S1131AF0C09393081092D804DACF811104C09F5F79
S1131B0090939308D4CF6091D804462F50E0FA0103
S1131B10E75EF74F8083DA01AA5AB74FE091930842
S1131B20F0E0E75EF84F80818C93FA01E552FA4FBA
S1131B30D901A652BB4F8C9180839F5F90939308E9
S1131B406F5F6093D804B3CFDF91CF91089521E004
S1131B5001C02F5F8FEF820F90E0FC01E95EF94F27
S1131B60E081EF3F11F1F0E0E950F44FE491E6FF3A
S1131B70F0CFAC014F5F5F4FFA01E95EF94FE081AE
S1131B80EF3F39F3F0E0E950F44F308133230CF7A1
S1131B90FA01E652FB4F30813323D9F2D4F2FC012F
S1131BA0E652FB4F3F5F3083D4CF8FEF8093D8044E
S1131BB00895AF92BF92CF92DF92EF92FF920F936C
S1131BC01F93CF93DF93742F482F50E04E3F51055E
S1131BD064F50F2EF5E1CF2EF7E0DF2EF02D0F2E5A
S1131BE0F6E1EF2EF7E0FF2EF02D07E118E0C8E153
S1131BF0D8E0A8EDB5E00F2EF9EDAF2EF5E0BF2E3D
S1131C00F02D8DEF90E0F60132916F01F7013293E0
S1131C107F01F80132918F013A933E91F50132939D
S1131C205F0101978417950774F7FA01E95EF94F8C
S1131C306083FA01E75EF84F7083FA01E652FB4FC6
S1131C402083DF91CF911F910F91FF90EF90DF9050
S1131C50CF90BF90AF9008950F931F93CF93DF93CE
S1131C60C0E030E0DFEF0FE114E0C09393088C2F65
S1131C7090E0FC01E95EF94F20812F3F09F440C058
S1131C80FC01E75EF84F8081380F383EE8F42E3FC0
S1131C90C9F0E22FF0E0E755F44FE491E170E093EE
S1131CA0D603EE2361F081E08C0F8093930820E04B
S1131CB0409141026EEF7DDFCE5F30E0D6CF21113F
S1131CC001C0DC2FCF5FD1CF8D2F90E0FC01E95E06
S1131CD0F94F0083FC01E75EF84F1083FC01E652E4
S1131CE0FB4F108281E08D0F8093930820E0409198
S1131CF041026EEF5EDFC0919308CF5F30E0B5CF55
S1131D00DF91CF911F910F9108956F927F929F92CF
S1131D10AF92BF92CF92DF92EF92FF920F931F93F5
S1131D20CF93DF93109293081092D6031092D804A5
S1131D30EAEDF4E08AED95E01192E817F907E1F78E
S1131D40B09093089091D8048091D60300E0D12CF0
S1131D50E12CA8E4BCE049E95CE06AEE7CE00F2EEB
S1131D60F2EF6F2EFCE07F2EF02D6894992493F807
S1131D700F2EF7E0CF2EF02DEB2DF0E0E852FC4FC4
S1131D8010811B3979F49093D8048093D603B092D0
S1131D909308E02FF0E0E95EF94F8FEF808381E054
S1131DA090E072C0FF24F394FB0CEF2DF0E0E852B6
S1131DB0FC4FA0802D2D3E2D922FF901E756F34FB5
S1131DC0E4911E1313C0F901E85BF34FE491EA3286
S1131DD079F0AE120FC0202F30E0E901C95ED94F6F
S1131DE098830F5FB394B3948E2FC6CF8E2F03C006
S1131DF08AE201C08E2F2F5F3F4F21353105E1F676
S1131E00ED01FA019E2F941B29912A3259F4B080D6
S1131E10B11208C0E02FF0E0E95EF94F90830F5F44
S1131E20BF2CAACF3196E617F70761F7F301949117
S1131E301917D1F09C2D01C0922FE92FF0E0E65143
S1131E40F34FE4911E1729F02FEF290F2F3FA1F72D
S1131E5013C091110AC09093D8048093D603F092D2
S1131E60930880E090E010C0992DE02FF0E0E75255
S1131E70FB4F9083BF2C80CF9093D8048093D603DC
S1131E80F092930880E090E0DF91CF911F910F9141
S1131E90FF90EF90DF90CF90BF90AF909F907F9096
S1131EA06F900895CF93DF93309117063F3FE1F091
S1131EB08AED94E0C8E1D6E0A9E1B7E0FC01219104
S1131EC0CF0112163CF0E32FF0E0E75FF44FE4910A
S1131ED0EC9306C0E32FF0E0E75AF44FE491EC935F
S1131EE0399111963F3F51F7DF91CF910895EF92C9
S1131EF0FF920F931F93CF93DF93C0E069C0C09309
S1131F0093080D2F10E0F801E950F44FE491E1FD3E
S1131F1002C0CF5F5DC0F801E950F44F808180FDBD
S1131F201CC0F801E65FF44F44919B0126523B4FDD
S1131F30790161E06D0FF901208181E08C0F39DEB8
S1131F40F801E55FF44F449162E06D0FF7012081E1
S1131F5082E08C0F2EDECD5F3BC081E08C0F982F8A
S1131F6001C0932FA92FB0E0A95EB94F2C9131E0A5
S1131F70390F2223B1F3909393082093D6032F3F74
S1131F8051F0E22FF0E0E950F44F908193FD1DC031
S1131F9024522230E0F0F801E65FF44F44919B01B3
S1131FA026523B4F790161E06D0FF901208101DE7A
S1131FB0F801E55FF44F449162E06D0FF701208171
S1131FC082E08C0FF6DDCD5F03C0C82F01C0C82F9F
S1131FD06C2F70E0FB01E95EF94FD081DF3F09F01F
S1131FE08ECFDF91CF911F910F91FF90EF900895C5
S1131FF03F924F925F926F927F928F929F92AF9295
S1132000BF92CF92DF92EF92FF920F931F93CF93E1
S1132010DF93C0E00F2EFEE18F2EF02D6894CC24C8
S1132020C4F80F2EFFE34F2EF02D0F2EFBE49F2E4E
S1132030F02D0F2EF6E25F2EF02D0F2EF3E16F2E12
S1132040F02D0F2EF2E1AF2EF02D0F2EFCE27F2E9D
S1132050F02D0F2EFAE2BF2EF02D0F2EFCE1DF2E15
S1132060F02D0F2EFBE1EF2EF02DDDE00F2EF8E129
S1132070FF2EF02DC09393080C2F10E0F801E95EB9
S1132080F94F90819093D603911102C0CF5FF2CFA4
S11320909F3F09F4A0C19093D804492F50E0FA015E
S11320A0E950F44FE491E4FF1BC0F801E652FB4F02
S11320B02081FA01E950F44F808185FD04C084E158
S11320C08093D60303C085E18093D60340914102F7
S11320D06091D60381E08C0F6CDDC0939308F2C04D
S11320E09E3491F4F092D603F801E652FB4F20811E
S11320F0F801E95EF94FD083CF5F409141026091CE
S1132100D6038C2F56DDB6CF9F3419F4E092D60354
S1132110EBCF903519F4D092D603E6CFFA01E9500B
S1132120F44F808188239CF5F801E652FB4F8081AF
S1132130882369F1332433943C0EE32DF0E0E95E07
S1132140F94F8081811123C082E08C0F8093930822
S1132150282F30E0F901E95EF94FE081E093D804DB
S1132160EF3FA9F0F0E0E950F44F408144237CF4C0
S1132170F901E652FB4F20812093D603222339F044
S113218020E0409141026FE114DDC32D73CFC09371
S11321909308973131F58FEF8C0F80939308C80122
S11321A00197FC01E95EF94FE081E093D603E53441
S11321B029F4FC01E95EF94FB082A3C0E93329F4A4
S11321C0FC01E95EF94F7082AEC0F0E0E950F44FD3
S11321D08081882324F4F801E95EF94FA082CF5F5F
S11321E049CF983191F4F801EA5EF94FE081F0E0CB
S11321F0E950F44F8081882314F0CF5F3BCFF8017E
S1132200E95EF94F6082CF5F35CF903271F4F80107
S1132210EA5EF94F80818C3311F0CF5F2BCFF80148
S1132220E95EF94F5082CF5F25CF9834B1F4F801BD
S1132230E95EF94FE181EF3F29F4F801E95EF94FD6
S1132240908223C0F0E0E950F44F808185FD1DC0E9
S1132250F801E95EF94F908218C09C33B1F4F8019B
S1132260E95EF94FE181EF3F11F4CF5F03CFF0E076
S1132270E950F44F808185FF02C0CF5FFBCEF801A7
S1132280E95EF94F4082CF5FF5CEF801E95EF94F80
S113229080818093D804E82FF0E0E950F44F9081D6
S11322A090FF10C0F801EA5EF94F9081903219F066
S11322B08093D6034AC0F801E95EF94F8C508083BD
S11322C0CF5FD8CE8091930890E0FC01E95EF94F8E
S11322D020812093D6032533A1F4FC01EA5EF94F53
S11322E0E081E093D804F0E0E755F44FE491E2FD97
S11322F002C0CF5FBFCEFC01E95EF94FC082CF5F61
S1132300B9CE8091D6038A3271F480919308E82F74
S1132310F0E0E652FB4F2081409141026BE28F5F77
S113232048DCCF5FA7CE8091D6038C3271F48091C4
S11323309308E82FF0E0E652FB4F208140914102E0
S11323406DE28F5F36DCCF5F95CE8091D603853406
S113235021F0893311F0CF5F8DCE80919308E82F5F
S1132360F0E0EA5EF94FE081F0E0E950F44F90814B
S1132370992314F0CF5F7ECE8F5F90E0FC01E95E7D
S1132380F94FE081EE23A9F0F0E0E950F44F208109
S1132390222314F0CF5F6ECEFC01E652FB4F808106
S11323A0882311F0CF5F66CEF801E95EF94F808291
S11323B010C0FC01E95EF94FE181EF3F51F0F0E01C
S11323C0E950F44F8081882324F4F801E95EF94F41
S11323D08082CF5F4FCEDF91CF911F910F91FF90FD
S11323E0EF90DF90CF90BF90AF909F908F907F90B1
S11323F06F905F904F903F900895CF936091D60374
S1132400A1E001C0AF5F7FEF7A0FE72FF0E0E95E54
S1132410F94FE081EF3F51F46093D603A091550842
S11324203091D60320E0C6E0B5E042C0F0E0E755C5
S1132430F44FE491E0FFE6CF8EEF8A0F01C0892FBD
S1132440811103C06093D603E9CFE82FF0E0E95E81
S1132450F94FE081EF3F41F0F0E0E950F44FE491AF
S11324609FEF980FEE235CF7482F50E0FA01E95EE6
S1132470F94F20812F3FB1F030E0F901E755F44FD7
S1132480908195FF06C0F901E950F44F908192FFC5
S113249009C0FA01E75EF84F908161E0690F9695F3
S11324A0690F60838F5F8713DFCFACCFA1E4282F40
S11324B0622F70E0FB01E95EF94F80818F3F09F4E0
S11324C0B3C090E0FC01E950F44F4081342F3078E0
S11324D009F442C081E0820F482F50E0FA01E95E1E
S11324E0F94F90819F3F11F3E92FF0E0E950F44F49
S11324F0A081A6FD16C092519230C8F62E5FE22F3D
S1132500F0E0E95EF94FE081F0E0E950F44F9081AA
S113251096FFCDCFFB01E75EF84F908191509083F9
S1132520C6CFA2FD0DC0A0FFC2CFFB01E75EF84FEE
S11325309081A92FA695A695A6959A1B9083B7CFAF
S1132540FA01E85EF84F308121E0230F932F96952E
S11325509695920F9083ABCFFC01E755F44F8081A1
S1132560982F987083FF1AC081E0820F482F50E0A3
S1132570FA01E95EF94FE081EF3F09F498CFF0E00A
S1132580E950F44F9081392F327091FF90CFFA01C6
S1132590E75EF84FC0833197B08389CF342F327010
S11325A041FF2DC0822F8F5F482F50E0FA01E95E72
S11325B0F94FE081EE23B9F3EF3F21F481E0820F7C
S11325C0392F75CFF0E0E950F44F8081382F327005
S11325D081FD03C081E0820F6ACFFA01E75EF84F04
S11325E0808186958F5F8083FB01E75EF84F808151
S11325F086958F5F808381E0820F392F58CF84FFC7
S113260010C0FB01EA5EF94FE081F0E0E950F44FBD
S1132610808181FF06C0FB01E75EF84F8081825014
S1132620808381E0820F43CF209393083093D603B5
S1132630A0935508CF91089506DA80E28093160797
S113264064DB009719F1D4DC82DA2CDCD6DE4FDCB3
S113265080919308282F30E0F901E95EF94F9081C9
S1132660913550F0809393089093D603F901E95E75
S1132670F94F8FEF808306C08F5F61F71092930844
S11326809093D603E9DA0CDA81E090E00895991B7F
S113269079E004C0991F961708F0961B881F7A9555
S11326A0C9F78095089597FB072E16F4009406D079
S11326B077FD08D00BD007FC05D03EF490958195AA
S11326C09F4F0895709561957F4F0895AA1BBB1B7A
S11326D051E107C0AA1FBB1FA617B70710F0A61B1E
S11326E0B70B881F991F5A95A9F780959095BC013F
S11326F0CD0108950F931F93CF93DF93869F80019D
S1132700879F100D969F100D1124C8010DD0EC0168
S1132710009721F0A80160E070E033D1CE01DF9191
S1132720CF911F910F910895CF93DF93823091053C
S113273010F482E090E0E0919608F091970820E090
S113274030E0C0E0D0E0309711F14081518148176A
S11327505907C0F04817590761F482819381209783
S113276019F09B838A832BC09093970880939608D3
S113277026C02115310519F04217530718F49A01A0
S1132780BE01DF01EF010280F381E02DDCCF2115D2
S1132790310509F1281B390B2430310590F41296C8
S11327A08D919C9113976115710521F0FB01938321
S11327B0828304C09093970880939608FD01329613
S11327C044C0FD01E20FF31F81939193225031091C
S11327D02D933C933AC02091940830919508232B73
S11327E041F4209102013091030130939508209324
S11327F0940820910001309101012115310541F423
S11328002DB73EB74091040150910501241B350BAF
S1132810E0919408F0919508E217F307A0F42E1BB9
S11328203F0B2817390778F0AC014E5F5F4F241730
S1132830350748F04E0F5F1F509395084093940856
S11328408193919302C0E0E0F0E0CF01DF91CF915A
S113285008950F931F93CF93DF93009709F48CC0CF
S1132860FC01329713821282009196081091970806
S11328700115110581F420813181820F931F20916C
S11328809408309195082817390779F5F09395083D
S1132890E093940871C0D80140E050E0AE17BF0740
S11328A050F412962D913C911397AD0121153105E9
S11328B009F1D901F3CF9D01DA01338322836081C9
S11328C07181860F971F8217930769F4EC012881A1
S11328D03981260F371F2E5F3F4F318320838A8132
S11328E09B8193838283452B29F4F0939708E0938B
S11328F0960842C01396FC93EE931297ED0149910A
S113290059919E01240F351FE217F30771F480815A
S11329109181840F951F029611969C938E938281C8
S1132920938113969C938E931297E0E0F0E0D80184
S113293012968D919C911397009719F0F8018C01D0
S1132940F6CF8D919C9198012E5F3F4F820F931F7C
S113295020919408309195082817390769F4309725
S113296029F4109297081092960802C013821282DA
S11329701093950800939408DF91CF911F910F91C4
S11329800895DC0101C06D9341505040E0F7089573
S1072990F894FFCFE5
S113299400009808200000434343435448423E281F
S11329A42C1E242C4830241E32241C4418321E1895
S11329B4522E36563643494F1A4249253342282F5C
S11329C44F4F424F6E0048261E2A1E221A1A1A42DC
S11329D442426E6E6E5454541A1A1A4242426D564E
S11329E46D5454547F7F00131313130A0E12181AD0
S11329F4161410140E120E1212100C0E0A120E0AD1
S1132A04080606060611060606060E10090A080A32
S1132A14060606050600121A141A120C0606060601
S1132A240606060606060606060606060606060A3A
S1132A340A0606062C138080404841593520414536
S1132A444D2045592054414F344C584B49484E5815
S1132A54204B4158344D50595558345441482E2034
S1132A64474F57342041482F484548334420504168
S1132A74484E4B2E4D45594B204D41593820444521
S1132A84592E9B000000000000000A0E13181B17A7
S1132A941510140E120E1212100D0F0B120E0B0938
S1132AA4060606FFFFFFFFFF5449433F282C1F255A
S1132AB42D4931241E33251D4518321E18532E3634
S1112AC456131B151B120D48271F2B1E220034
S9030000FC
